{
  "contractName": "FuturePrice",
  "abi": [
    {
      "constant": true,
      "inputs": [],
      "name": "futpricedollars",
      "outputs": [
        {
          "name": "",
          "type": "uint256"
        }
      ],
      "payable": false,
      "stateMutability": "view",
      "type": "function"
    },
    {
      "constant": true,
      "inputs": [],
      "name": "futpricecents",
      "outputs": [
        {
          "name": "",
          "type": "uint256"
        }
      ],
      "payable": false,
      "stateMutability": "view",
      "type": "function"
    },
    {
      "constant": true,
      "inputs": [],
      "name": "ethusd",
      "outputs": [
        {
          "name": "",
          "type": "uint256"
        }
      ],
      "payable": false,
      "stateMutability": "view",
      "type": "function"
    },
    {
      "constant": true,
      "inputs": [],
      "name": "basispoint",
      "outputs": [
        {
          "name": "",
          "type": "uint256"
        }
      ],
      "payable": false,
      "stateMutability": "view",
      "type": "function"
    },
    {
      "constant": true,
      "inputs": [],
      "name": "year",
      "outputs": [
        {
          "name": "",
          "type": "uint256"
        }
      ],
      "payable": false,
      "stateMutability": "view",
      "type": "function"
    },
    {
      "inputs": [
        {
          "name": "ethusdc",
          "type": "uint256"
        },
        {
          "name": "bp",
          "type": "uint256"
        },
        {
          "name": "y",
          "type": "uint256"
        }
      ],
      "payable": false,
      "stateMutability": "nonpayable",
      "type": "constructor"
    },
    {
      "constant": true,
      "inputs": [],
      "name": "output",
      "outputs": [
        {
          "name": "",
          "type": "uint256"
        },
        {
          "name": "",
          "type": "uint256"
        }
      ],
      "payable": false,
      "stateMutability": "view",
      "type": "function"
    }
  ],
  "bytecode": "0x6060604052341561000f57600080fd5b60405160608061028383398101604052808051906020019091908051906020019091908051906020019091905050600080846000819055508360018190555082600281905550600254600154612710010a91506002546127100a606402905080826000540281151561007d57fe5b0460038190555080826000540281151561009357fe5b0660048190555050505050506101d5806100ae6000396000f300606060405260043610610078576000357c0100000000000000000000000000000000000000000000000000000000900463ffffffff168063064659011461007d578063401a1be6146100a657806361150aae146100cf57806378755d5d146100f8578063f20eaeb814610121578063f326971614610151575b600080fd5b341561008857600080fd5b61009061017a565b6040518082815260200191505060405180910390f35b34156100b157600080fd5b6100b9610180565b6040518082815260200191505060405180910390f35b34156100da57600080fd5b6100e2610186565b6040518082815260200191505060405180910390f35b341561010357600080fd5b61010b61018c565b6040518082815260200191505060405180910390f35b341561012c57600080fd5b610134610192565b604051808381526020018281526020019250505060405180910390f35b341561015c57600080fd5b6101646101a3565b6040518082815260200191505060405180910390f35b60035481565b60045481565b60005481565b60015481565b600080600354600454915091509091565b600254815600a165627a7a723058202a1967185a70bc0c865694aacdf2cd2bc6841c1aa526b27e9c508b5e69dbb6b70029",
  "source": "pragma solidity ^0.4.4;\n\ncontract FuturePrice {\n\n  uint256 public ethusd;\n  uint256 public basispoint;\n  uint256 public year;         //want to have quarters but not sure how because of decimals\n  uint256 public futpricedollars;\n  uint256 public futpricecents;\n\n  function FuturePrice(uint256 ethusdc, uint256 bp, uint256 y) public {\n    // constructor\n    ethusd = ethusdc;\n    basispoint = bp;\n    year = y;\n    uint256 exponentvalue = (10000+basispoint)**year;\n    uint256 i = 100*(10000)**year;\n    futpricedollars = ethusd*exponentvalue/i; \n    futpricecents = ethusd*exponentvalue%i; \n  }\n  // futures dollar and cent value \n  function output() public constant returns(uint256 , uint256) {\n    return (futpricedollars,futpricecents);\n  }  \n}\n\n\n",
  "sourcePath": "/blockchain/blocktrain/futprice/futpricesol/contracts/FuturePrice.sol",
  "compiler": {
    "name": "solc",
    "version": "0.4.19+commit.c4cbbb05.Emscripten.clang"
  },
  "schemaVersion": "2.0.0",
  "updatedAt": "2018-03-05T21:50:49.824Z"
}